:060000000A128A110C280F
:10000800FE00030EF3000A08F4000A128A1164289D
:100018000A128A110F280A128A1109210A128A1152
:10002800F800F501F601F70183010A128A119F28E9
:100038008316031789010730831603138600870187
:1000480088018901831203138501870188018901C9
:10005800831603138113073095000730960070301C
:100068008F040F14831203130C13831603130C1736
:100078008B170B170B108B1501308316031788008D
:100088000130831603138500831203131F083F39B9
:1000980080389F00C3309F05831603139F131F12D8
:1000A8009F12831203131F140C130D3083120313B2
:1000B800A100FB30A000A00B5F28A10B5F2808005F
:1000C800831203130C1F69286A2878281F0CF20072
:1000D800720C0F39003A031D7228732877281E08FE
:1000E800F500750887000C130B1C7B287C289828C2
:1000F80086187F2880288228F601972806188528E0
:1001080086288A28F601F60A6300972806198D289A
:100118008E289728F6017508F00078080A128A11C7
:10012800EE200A128A110B1074088A00730E8300DD
:10013800FE0E7E0E09000A128A111C200A128A116C
:100148007608031DA828A928C628831203139F1818
:10015800AE28AF28B7289F14193083120313A200C2
:10016800A20BB428B728770883120313890001303B
:10017800A2002208F70708307702031CC428C52804
:10018800C628F70178080A128A11D3200A128A11A0
:10019800831203138800A4280A128A110C288312D8
:1001A8000313A000831603178C18DB28DC28D62835
:1001B8000C18DF28E028D62883120313200883129E
:1001C80003178D00831603178C130C14831203175F
:1001D8000C080800F100831603178C18F428F5287A
:1001E800EF287108831203178D0070088C0083169E
:1001F80003178C130C158B1355308D00AA308D0006
:0C0208008C140C110B108B170800043430
:08400000FF3FFF3FFF3FFF3FC0
:04400E00D420FF3F7C
:00000001FF
